{
  "_format": "hh-sol-artifact-1",
  "contractName": "Collection",
  "sourceName": "contracts/Collection.sol",
  "abi": [
    {
      "anonymous": false,
      "inputs": [
        {
          "indexed": true,
          "internalType": "address",
          "name": "owner",
          "type": "address"
        },
        {
          "indexed": true,
          "internalType": "address",
          "name": "approved",
          "type": "address"
        },
        {
          "indexed": true,
          "internalType": "uint256",
          "name": "tokenId",
          "type": "uint256"
        }
      ],
      "name": "Approval",
      "type": "event"
    },
    {
      "anonymous": false,
      "inputs": [
        {
          "indexed": true,
          "internalType": "address",
          "name": "owner",
          "type": "address"
        },
        {
          "indexed": true,
          "internalType": "address",
          "name": "operator",
          "type": "address"
        },
        {
          "indexed": false,
          "internalType": "bool",
          "name": "approved",
          "type": "bool"
        }
      ],
      "name": "ApprovalForAll",
      "type": "event"
    },
    {
      "anonymous": false,
      "inputs": [
        {
          "indexed": true,
          "internalType": "enum PublishChannel",
          "name": "location",
          "type": "uint8"
        },
        {
          "indexed": true,
          "internalType": "string",
          "name": "key",
          "type": "string"
        },
        {
          "indexed": false,
          "internalType": "uint256",
          "name": "value",
          "type": "uint256"
        }
      ],
      "name": "CollectionIntPublished",
      "type": "event"
    },
    {
      "anonymous": false,
      "inputs": [
        {
          "indexed": true,
          "internalType": "enum StorageLocation",
          "name": "location",
          "type": "uint8"
        },
        {
          "indexed": true,
          "internalType": "string",
          "name": "key",
          "type": "string"
        },
        {
          "indexed": false,
          "internalType": "uint256",
          "name": "value",
          "type": "uint256"
        }
      ],
      "name": "CollectionIntUpdated",
      "type": "event"
    },
    {
      "anonymous": false,
      "inputs": [
        {
          "indexed": true,
          "internalType": "enum PublishChannel",
          "name": "location",
          "type": "uint8"
        },
        {
          "indexed": true,
          "internalType": "string",
          "name": "key",
          "type": "string"
        },
        {
          "indexed": false,
          "internalType": "string",
          "name": "value",
          "type": "string"
        }
      ],
      "name": "CollectionStringPublished",
      "type": "event"
    },
    {
      "anonymous": false,
      "inputs": [
        {
          "indexed": true,
          "internalType": "enum StorageLocation",
          "name": "location",
          "type": "uint8"
        },
        {
          "indexed": true,
          "internalType": "string",
          "name": "key",
          "type": "string"
        },
        {
          "indexed": false,
          "internalType": "string",
          "name": "value",
          "type": "string"
        }
      ],
      "name": "CollectionStringUpdated",
      "type": "event"
    },
    {
      "anonymous": false,
      "inputs": [
        {
          "indexed": true,
          "internalType": "contract IEngine",
          "name": "engine",
          "type": "address"
        }
      ],
      "name": "EngineInstalled",
      "type": "event"
    },
    {
      "anonymous": false,
      "inputs": [
        {
          "indexed": true,
          "internalType": "address",
          "name": "previousOwner",
          "type": "address"
        },
        {
          "indexed": true,
          "internalType": "address",
          "name": "newOwner",
          "type": "address"
        }
      ],
      "name": "OwnershipTransferred",
      "type": "event"
    },
    {
      "anonymous": false,
      "inputs": [
        {
          "indexed": true,
          "internalType": "enum PublishChannel",
          "name": "location",
          "type": "uint8"
        },
        {
          "indexed": true,
          "internalType": "uint256",
          "name": "tokenId",
          "type": "uint256"
        },
        {
          "indexed": true,
          "internalType": "string",
          "name": "key",
          "type": "string"
        },
        {
          "indexed": false,
          "internalType": "uint256",
          "name": "value",
          "type": "uint256"
        }
      ],
      "name": "TokenIntPublished",
      "type": "event"
    },
    {
      "anonymous": false,
      "inputs": [
        {
          "indexed": true,
          "internalType": "enum StorageLocation",
          "name": "location",
          "type": "uint8"
        },
        {
          "indexed": true,
          "internalType": "uint256",
          "name": "tokenId",
          "type": "uint256"
        },
        {
          "indexed": true,
          "internalType": "string",
          "name": "key",
          "type": "string"
        },
        {
          "indexed": false,
          "internalType": "uint256",
          "name": "value",
          "type": "uint256"
        }
      ],
      "name": "TokenIntUpdated",
      "type": "event"
    },
    {
      "anonymous": false,
      "inputs": [
        {
          "indexed": true,
          "internalType": "enum PublishChannel",
          "name": "location",
          "type": "uint8"
        },
        {
          "indexed": true,
          "internalType": "uint256",
          "name": "tokenId",
          "type": "uint256"
        },
        {
          "indexed": true,
          "internalType": "string",
          "name": "key",
          "type": "string"
        },
        {
          "indexed": false,
          "internalType": "string",
          "name": "value",
          "type": "string"
        }
      ],
      "name": "TokenStringPublished",
      "type": "event"
    },
    {
      "anonymous": false,
      "inputs": [
        {
          "indexed": true,
          "internalType": "enum StorageLocation",
          "name": "location",
          "type": "uint8"
        },
        {
          "indexed": true,
          "internalType": "uint256",
          "name": "tokenId",
          "type": "uint256"
        },
        {
          "indexed": true,
          "internalType": "string",
          "name": "key",
          "type": "string"
        },
        {
          "indexed": false,
          "internalType": "string",
          "name": "value",
          "type": "string"
        }
      ],
      "name": "TokenStringUpdated",
      "type": "event"
    },
    {
      "anonymous": false,
      "inputs": [
        {
          "indexed": true,
          "internalType": "address",
          "name": "from",
          "type": "address"
        },
        {
          "indexed": true,
          "internalType": "address",
          "name": "to",
          "type": "address"
        },
        {
          "indexed": true,
          "internalType": "uint256",
          "name": "tokenId",
          "type": "uint256"
        }
      ],
      "name": "Transfer",
      "type": "event"
    },
    {
      "inputs": [
        {
          "internalType": "address",
          "name": "to",
          "type": "address"
        },
        {
          "internalType": "uint256",
          "name": "tokenId",
          "type": "uint256"
        }
      ],
      "name": "approve",
      "outputs": [],
      "stateMutability": "nonpayable",
      "type": "function"
    },
    {
      "inputs": [
        {
          "internalType": "address",
          "name": "owner",
          "type": "address"
        }
      ],
      "name": "balanceOf",
      "outputs": [
        {
          "internalType": "uint256",
          "name": "",
          "type": "uint256"
        }
      ],
      "stateMutability": "view",
      "type": "function"
    },
    {
      "inputs": [
        {
          "internalType": "uint256",
          "name": "tokenId",
          "type": "uint256"
        }
      ],
      "name": "getApproved",
      "outputs": [
        {
          "internalType": "address",
          "name": "",
          "type": "address"
        }
      ],
      "stateMutability": "view",
      "type": "function"
    },
    {
      "inputs": [
        {
          "internalType": "string",
          "name": "name",
          "type": "string"
        },
        {
          "internalType": "string",
          "name": "symbol",
          "type": "string"
        },
        {
          "internalType": "contract IEngine",
          "name": "engine",
          "type": "address"
        },
        {
          "internalType": "address",
          "name": "owner",
          "type": "address"
        }
      ],
      "name": "initialize",
      "outputs": [],
      "stateMutability": "nonpayable",
      "type": "function"
    },
    {
      "inputs": [
        {
          "internalType": "contract IEngine",
          "name": "engine",
          "type": "address"
        }
      ],
      "name": "installEngine",
      "outputs": [],
      "stateMutability": "nonpayable",
      "type": "function"
    },
    {
      "inputs": [],
      "name": "installedEngine",
      "outputs": [
        {
          "internalType": "contract IEngine",
          "name": "",
          "type": "address"
        }
      ],
      "stateMutability": "view",
      "type": "function"
    },
    {
      "inputs": [
        {
          "internalType": "address",
          "name": "owner",
          "type": "address"
        },
        {
          "internalType": "address",
          "name": "operator",
          "type": "address"
        }
      ],
      "name": "isApprovedForAll",
      "outputs": [
        {
          "internalType": "bool",
          "name": "",
          "type": "bool"
        }
      ],
      "stateMutability": "view",
      "type": "function"
    },
    {
      "inputs": [
        {
          "internalType": "address",
          "name": "to",
          "type": "address"
        },
        {
          "components": [
            {
              "internalType": "bool",
              "name": "storeEngine",
              "type": "bool"
            },
            {
              "internalType": "bool",
              "name": "storeMintedBy",
              "type": "bool"
            },
            {
              "internalType": "bool",
              "name": "storeMintedTo",
              "type": "bool"
            },
            {
              "internalType": "bool",
              "name": "storeTimestamp",
              "type": "bool"
            },
            {
              "internalType": "bool",
              "name": "storeBlockNumber",
              "type": "bool"
            },
            {
              "components": [
                {
                  "internalType": "string",
                  "name": "key",
                  "type": "string"
                },
                {
                  "internalType": "string",
                  "name": "value",
                  "type": "string"
                }
              ],
              "internalType": "struct StringStorage[]",
              "name": "stringData",
              "type": "tuple[]"
            },
            {
              "components": [
                {
                  "internalType": "string",
                  "name": "key",
                  "type": "string"
                },
                {
                  "internalType": "uint256",
                  "name": "value",
                  "type": "uint256"
                }
              ],
              "internalType": "struct IntStorage[]",
              "name": "intData",
              "type": "tuple[]"
            }
          ],
          "internalType": "struct MintOptions",
          "name": "options",
          "type": "tuple"
        }
      ],
      "name": "mint",
      "outputs": [
        {
          "internalType": "uint256",
          "name": "",
          "type": "uint256"
        }
      ],
      "stateMutability": "nonpayable",
      "type": "function"
    },
    {
      "inputs": [],
      "name": "name",
      "outputs": [
        {
          "internalType": "string",
          "name": "",
          "type": "string"
        }
      ],
      "stateMutability": "view",
      "type": "function"
    },
    {
      "inputs": [],
      "name": "nextTokenId",
      "outputs": [
        {
          "internalType": "uint256",
          "name": "",
          "type": "uint256"
        }
      ],
      "stateMutability": "view",
      "type": "function"
    },
    {
      "inputs": [],
      "name": "owner",
      "outputs": [
        {
          "internalType": "address",
          "name": "",
          "type": "address"
        }
      ],
      "stateMutability": "view",
      "type": "function"
    },
    {
      "inputs": [
        {
          "internalType": "uint256",
          "name": "tokenId",
          "type": "uint256"
        }
      ],
      "name": "ownerOf",
      "outputs": [
        {
          "internalType": "address",
          "name": "",
          "type": "address"
        }
      ],
      "stateMutability": "view",
      "type": "function"
    },
    {
      "inputs": [
        {
          "internalType": "enum PublishChannel",
          "name": "channel",
          "type": "uint8"
        },
        {
          "internalType": "uint256",
          "name": "tokenId",
          "type": "uint256"
        },
        {
          "internalType": "string",
          "name": "topic",
          "type": "string"
        },
        {
          "internalType": "uint256",
          "name": "value",
          "type": "uint256"
        }
      ],
      "name": "publishInt",
      "outputs": [],
      "stateMutability": "nonpayable",
      "type": "function"
    },
    {
      "inputs": [
        {
          "internalType": "enum PublishChannel",
          "name": "channel",
          "type": "uint8"
        },
        {
          "internalType": "string",
          "name": "topic",
          "type": "string"
        },
        {
          "internalType": "uint256",
          "name": "value",
          "type": "uint256"
        }
      ],
      "name": "publishInt",
      "outputs": [],
      "stateMutability": "nonpayable",
      "type": "function"
    },
    {
      "inputs": [
        {
          "internalType": "enum PublishChannel",
          "name": "channel",
          "type": "uint8"
        },
        {
          "internalType": "uint256",
          "name": "tokenId",
          "type": "uint256"
        },
        {
          "internalType": "string",
          "name": "topic",
          "type": "string"
        },
        {
          "internalType": "string",
          "name": "value",
          "type": "string"
        }
      ],
      "name": "publishString",
      "outputs": [],
      "stateMutability": "nonpayable",
      "type": "function"
    },
    {
      "inputs": [
        {
          "internalType": "enum PublishChannel",
          "name": "channel",
          "type": "uint8"
        },
        {
          "internalType": "string",
          "name": "topic",
          "type": "string"
        },
        {
          "internalType": "string",
          "name": "value",
          "type": "string"
        }
      ],
      "name": "publishString",
      "outputs": [],
      "stateMutability": "nonpayable",
      "type": "function"
    },
    {
      "inputs": [
        {
          "internalType": "enum StorageLocation",
          "name": "location",
          "type": "uint8"
        },
        {
          "internalType": "uint256",
          "name": "tokenId",
          "type": "uint256"
        },
        {
          "internalType": "string",
          "name": "key",
          "type": "string"
        }
      ],
      "name": "readInt",
      "outputs": [
        {
          "internalType": "uint256",
          "name": "",
          "type": "uint256"
        }
      ],
      "stateMutability": "view",
      "type": "function"
    },
    {
      "inputs": [
        {
          "internalType": "enum StorageLocation",
          "name": "location",
          "type": "uint8"
        },
        {
          "internalType": "string",
          "name": "key",
          "type": "string"
        }
      ],
      "name": "readInt",
      "outputs": [
        {
          "internalType": "uint256",
          "name": "",
          "type": "uint256"
        }
      ],
      "stateMutability": "view",
      "type": "function"
    },
    {
      "inputs": [
        {
          "internalType": "enum StorageLocation",
          "name": "location",
          "type": "uint8"
        },
        {
          "internalType": "string",
          "name": "key",
          "type": "string"
        }
      ],
      "name": "readString",
      "outputs": [
        {
          "internalType": "string",
          "name": "",
          "type": "string"
        }
      ],
      "stateMutability": "view",
      "type": "function"
    },
    {
      "inputs": [
        {
          "internalType": "enum StorageLocation",
          "name": "location",
          "type": "uint8"
        },
        {
          "internalType": "uint256",
          "name": "tokenId",
          "type": "uint256"
        },
        {
          "internalType": "string",
          "name": "key",
          "type": "string"
        }
      ],
      "name": "readString",
      "outputs": [
        {
          "internalType": "string",
          "name": "",
          "type": "string"
        }
      ],
      "stateMutability": "view",
      "type": "function"
    },
    {
      "inputs": [],
      "name": "renounceOwnership",
      "outputs": [],
      "stateMutability": "nonpayable",
      "type": "function"
    },
    {
      "inputs": [
        {
          "internalType": "uint256",
          "name": "tokenId",
          "type": "uint256"
        },
        {
          "internalType": "uint256",
          "name": "salePrice",
          "type": "uint256"
        }
      ],
      "name": "royaltyInfo",
      "outputs": [
        {
          "internalType": "address",
          "name": "receiver",
          "type": "address"
        },
        {
          "internalType": "uint256",
          "name": "royaltyAmount",
          "type": "uint256"
        }
      ],
      "stateMutability": "view",
      "type": "function"
    },
    {
      "inputs": [
        {
          "internalType": "address",
          "name": "from",
          "type": "address"
        },
        {
          "internalType": "address",
          "name": "to",
          "type": "address"
        },
        {
          "internalType": "uint256",
          "name": "tokenId",
          "type": "uint256"
        }
      ],
      "name": "safeTransferFrom",
      "outputs": [],
      "stateMutability": "nonpayable",
      "type": "function"
    },
    {
      "inputs": [
        {
          "internalType": "address",
          "name": "from",
          "type": "address"
        },
        {
          "internalType": "address",
          "name": "to",
          "type": "address"
        },
        {
          "internalType": "uint256",
          "name": "tokenId",
          "type": "uint256"
        },
        {
          "internalType": "bytes",
          "name": "_data",
          "type": "bytes"
        }
      ],
      "name": "safeTransferFrom",
      "outputs": [],
      "stateMutability": "nonpayable",
      "type": "function"
    },
    {
      "inputs": [
        {
          "internalType": "address",
          "name": "operator",
          "type": "address"
        },
        {
          "internalType": "bool",
          "name": "approved",
          "type": "bool"
        }
      ],
      "name": "setApprovalForAll",
      "outputs": [],
      "stateMutability": "nonpayable",
      "type": "function"
    },
    {
      "inputs": [
        {
          "internalType": "bytes4",
          "name": "interfaceId",
          "type": "bytes4"
        }
      ],
      "name": "supportsInterface",
      "outputs": [
        {
          "internalType": "bool",
          "name": "",
          "type": "bool"
        }
      ],
      "stateMutability": "view",
      "type": "function"
    },
    {
      "inputs": [],
      "name": "symbol",
      "outputs": [
        {
          "internalType": "string",
          "name": "",
          "type": "string"
        }
      ],
      "stateMutability": "view",
      "type": "function"
    },
    {
      "inputs": [
        {
          "internalType": "uint256",
          "name": "tokenId",
          "type": "uint256"
        }
      ],
      "name": "tokenURI",
      "outputs": [
        {
          "internalType": "string",
          "name": "",
          "type": "string"
        }
      ],
      "stateMutability": "view",
      "type": "function"
    },
    {
      "inputs": [
        {
          "internalType": "address",
          "name": "from",
          "type": "address"
        },
        {
          "internalType": "address",
          "name": "to",
          "type": "address"
        },
        {
          "internalType": "uint256",
          "name": "tokenId",
          "type": "uint256"
        }
      ],
      "name": "transferFrom",
      "outputs": [],
      "stateMutability": "nonpayable",
      "type": "function"
    },
    {
      "inputs": [
        {
          "internalType": "address",
          "name": "newOwner",
          "type": "address"
        }
      ],
      "name": "transferOwnership",
      "outputs": [],
      "stateMutability": "nonpayable",
      "type": "function"
    },
    {
      "inputs": [
        {
          "internalType": "enum StorageLocation",
          "name": "location",
          "type": "uint8"
        },
        {
          "internalType": "string",
          "name": "key",
          "type": "string"
        },
        {
          "internalType": "uint256",
          "name": "value",
          "type": "uint256"
        }
      ],
      "name": "writeInt",
      "outputs": [],
      "stateMutability": "nonpayable",
      "type": "function"
    },
    {
      "inputs": [
        {
          "internalType": "enum StorageLocation",
          "name": "location",
          "type": "uint8"
        },
        {
          "internalType": "uint256",
          "name": "tokenId",
          "type": "uint256"
        },
        {
          "internalType": "string",
          "name": "key",
          "type": "string"
        },
        {
          "internalType": "uint256",
          "name": "value",
          "type": "uint256"
        }
      ],
      "name": "writeInt",
      "outputs": [],
      "stateMutability": "nonpayable",
      "type": "function"
    },
    {
      "inputs": [
        {
          "internalType": "enum StorageLocation",
          "name": "location",
          "type": "uint8"
        },
        {
          "internalType": "string",
          "name": "key",
          "type": "string"
        },
        {
          "internalType": "string",
          "name": "value",
          "type": "string"
        }
      ],
      "name": "writeString",
      "outputs": [],
      "stateMutability": "nonpayable",
      "type": "function"
    },
    {
      "inputs": [
        {
          "internalType": "enum StorageLocation",
          "name": "location",
          "type": "uint8"
        },
        {
          "internalType": "uint256",
          "name": "tokenId",
          "type": "uint256"
        },
        {
          "internalType": "string",
          "name": "key",
          "type": "string"
        },
        {
          "internalType": "string",
          "name": "value",
          "type": "string"
        }
      ],
      "name": "writeString",
      "outputs": [],
      "stateMutability": "nonpayable",
      "type": "function"
    }
  ],
  "bytecode": "0x608060405234801561001057600080fd5b506131d4806100206000396000f3fe608060405234801561001057600080fd5b50600436106102065760003560e01c8063869e039e1161011a578063c0f53f3d116100ad578063ca0b68af1161007c578063ca0b68af1461046e578063cc89f96214610481578063ddb114c114610494578063e985e9c5146104a7578063f2fde38b146104e357600080fd5b8063c0f53f3d14610422578063c4445ead14610435578063c87b56dd14610448578063c9a7a7c41461045b57600080fd5b8063a22cb465116100e9578063a22cb465146103d6578063a66103aa146103e9578063b88d4fde146103fc578063b8c338891461040f57600080fd5b8063869e039e146103975780638da5cb5b146103aa5780638f15b414146103bb57806395d89b41146103ce57600080fd5b80632a55205a1161019d57806370a082311161016c57806370a082311461034d578063715018a61461036057806375794a3c14610368578063819384ac14610371578063847b28471461038457600080fd5b80632a55205a146102e25780634102a30c1461031457806342842e0e146103275780636352211e1461033a57600080fd5b8063095ea7b3116101d9578063095ea7b3146102945780630a0c3e5e146102a95780631e3c7b88146102bc57806323b872dd146102cf57600080fd5b806301ffc9a71461020b578063036217ab1461023357806306fdde0314610254578063081812fc14610269575b600080fd5b61021e610219366004612559565b6104f6565b60405190151581526020015b60405180910390f35b6102466102413660046125cb565b61053d565b60405190815260200161022a565b61025c610588565b60405161022a919061267c565b61027c61027736600461268f565b61061a565b6040516001600160a01b03909116815260200161022a565b6102a76102a23660046126bd565b6106b4565b005b6102a76102b73660046126e9565b6107ca565b61025c6102ca366004612742565b61081b565b6102a76102dd366004612794565b6108f2565b6102f56102f03660046127d5565b610923565b604080516001600160a01b03909316835260208301919091520161022a565b60c95461027c906001600160a01b031681565b6102a7610335366004612794565b6109bc565b61027c61034836600461268f565b6109d7565b61024661035b3660046127f7565b610a4e565b6102a7610ad5565b61024660ca5481565b6102a761037f366004612823565b610b0b565b610246610392366004612742565b610b7b565b6102a76103a5366004612884565b610bc1565b6097546001600160a01b031661027c565b6102a76103c936600461290d565b610c37565b61025c610d33565b6102a76103e43660046129af565b610d42565b6102a76103f73660046129e8565b610d51565b6102a761040a366004612a76565b610da5565b6102a761041d366004612b24565b610dd7565b61025c6104303660046125cb565b610e54565b6102a7610443366004612ba4565b610f2e565b61025c61045636600461268f565b610fa1565b6102a76104693660046127f7565b611028565b61024661047c366004612bc5565b61105e565b6102a761048f366004612c10565b611419565b6102a76104a2366004612c32565b6114a0565b61021e6104b5366004612c51565b6001600160a01b039182166000908152606a6020908152604080832093909416825291909152205460ff1690565b6102a76104f13660046127f7565b61150d565b6000610501826115a5565b8061051c57506001600160e01b0319821663152a902d60e11b145b8061053757506001600160e01b031982166301ffc9a760e01b145b92915050565b600080858585856040516020016105579493929190612cba565b60408051601f198184030181529181528151602092830120600090815260cc9092529020549150505b949350505050565b60606065805461059790612ce2565b80601f01602080910402602001604051908101604052809291908181526020018280546105c390612ce2565b80156106105780601f106105e557610100808354040283529160200191610610565b820191906000526020600020905b8154815290600101906020018083116105f357829003601f168201915b5050505050905090565b6000818152606760205260408120546001600160a01b03166106985760405162461bcd60e51b815260206004820152602c60248201527f4552433732313a20617070726f76656420717565727920666f72206e6f6e657860448201526b34b9ba32b73a103a37b5b2b760a11b60648201526084015b60405180910390fd5b506000908152606960205260409020546001600160a01b031690565b60006106bf826109d7565b9050806001600160a01b0316836001600160a01b0316141561072d5760405162461bcd60e51b815260206004820152602160248201527f4552433732313a20617070726f76616c20746f2063757272656e74206f776e656044820152603960f91b606482015260840161068f565b336001600160a01b0382161480610749575061074981336104b5565b6107bb5760405162461bcd60e51b815260206004820152603860248201527f4552433732313a20617070726f76652063616c6c6572206973206e6f74206f7760448201527f6e6572206e6f7220617070726f76656420666f7220616c6c0000000000000000606482015260840161068f565b6107c583836115f5565b505050565b6107d384611663565b6108158484848080601f0160208091040260200160405190810160405280939291908181526020018383808284376000920191909152508692506116f0915050565b50505050565b6060600084848460405160200161083493929190612d1d565b60405160208183030381529060405280519060200120905060cb6000828152602001908152602001600020805461086a90612ce2565b80601f016020809104026020016040519081016040528092919081815260200182805461089690612ce2565b80156108e35780601f106108b8576101008083540402835291602001916108e3565b820191906000526020600020905b8154815290600101906020018083116108c657829003601f168201915b50505050509150509392505050565b6108fc3382611784565b6109185760405162461bcd60e51b815260040161068f90612d3e565b6107c5838383611877565b60c954604051631b6f4ba160e11b8152306004820152602481018490526044810183905260009182916001600160a01b03909116906336de974290606401604080518083038186803b15801561097857600080fd5b505afa15801561098c573d6000803e3d6000fd5b505050506040513d601f19601f820116820180604052508101906109b09190612d8f565b915091505b9250929050565b6107c583838360405180602001604052806000815250610da5565b6000818152606760205260408120546001600160a01b0316806105375760405162461bcd60e51b815260206004820152602960248201527f4552433732313a206f776e657220717565727920666f72206e6f6e657869737460448201526832b73a103a37b5b2b760b91b606482015260840161068f565b60006001600160a01b038216610ab95760405162461bcd60e51b815260206004820152602a60248201527f4552433732313a2062616c616e636520717565727920666f7220746865207a65604482015269726f206164647265737360b01b606482015260840161068f565b506001600160a01b031660009081526068602052604090205490565b6097546001600160a01b03163314610aff5760405162461bcd60e51b815260040161068f90612dbd565b610b096000611a22565b565b610b158585611a74565b8282604051610b25929190612df2565b604051809103902084866002811115610b4057610b40612c7f565b6040518481527f5de69e04f7842459f5c80e3fd1b2b69a2c3d392e367e3dd637c5050dc333d418906020015b60405180910390a45050505050565b600080848484604051602001610b9393929190612d1d565b60408051808303601f190181529181528151602092830120600090815260cc90925290205495945050505050565b610bcb8686611a74565b8383604051610bdb929190612df2565b604051809103902085876002811115610bf657610bf6612c7f565b7fcfcd0c7e57905ea40d63c78143aa14a85dd9d4717d548ca379cc641359945a458585604051610c27929190612e02565b60405180910390a4505050505050565b600054610100900460ff1680610c50575060005460ff16155b610c6c5760405162461bcd60e51b815260040161068f90612e31565b600054610100900460ff16158015610c8e576000805461ffff19166101011790555b610d0187878080601f01602080910402602001604051908101604052809392919081815260200183838082843760009201919091525050604080516020601f8b018190048102820181019092528981529250899150889081908401838280828437600092019190915250611b5192505050565b610d0a82611a22565b610d1383611bd8565b600160ca558015610d2a576000805461ff00191690555b50505050505050565b60606066805461059790612ce2565b610d4d338383611ce4565b5050565b610d5b8585611db3565b610d9e858585858080601f016020809104026020016040519081016040528093929190818152602001838380828437600092019190915250879250611e11915050565b5050505050565b610daf3383611784565b610dcb5760405162461bcd60e51b815260040161068f90612d3e565b61081584848484611ea8565b610de085611663565b610d9e8585858080601f01602080910402602001604051908101604052809392919081815260200183838082843760009201919091525050604080516020601f89018190048102820181019092528781529250879150869081908401838280828437600092019190915250611edb92505050565b6060600085858585604051602001610e6f9493929190612cba565b60405160208183030381529060405280519060200120905060cb60008281526020019081526020016000208054610ea590612ce2565b80601f0160208091040260200160405190810160405280929190818152602001828054610ed190612ce2565b8015610f1e5780601f10610ef357610100808354040283529160200191610f1e565b820191906000526020600020905b815481529060010190602001808311610f0157829003601f168201915b5050505050915050949350505050565b610f3785611f81565b8383604051610f47929190612df2565b6040518091039020856002811115610f6157610f61612c7f565b7f261657457e4ca4cf70c5aa313e67650735e0d0937d1c4a24908a8d691cda53628484604051610f92929190612e02565b60405180910390a35050505050565b60c9546040516305b1feb160e11b8152306004820152602481018390526060916001600160a01b031690630b63fd629060440160006040518083038186803b158015610fec57600080fd5b505afa158015611000573d6000803e3d6000fd5b505050506040513d6000823e601f3d908101601f191682016040526105379190810190612e7f565b6097546001600160a01b031633146110525760405162461bcd60e51b815260040161068f90612dbd565b61105b81611bd8565b50565b60c9546000906001600160a01b0316336001600160a01b0316146110945760405162461bcd60e51b815260040161068f90612ef5565b60ca8054600091826110a583612f36565b9190505590506110b58482612033565b60005b6110c560a0850185612f51565b90508110156111cb576111b96002836110e160a0880188612f51565b858181106110f1576110f1612f9a565b90506020028101906111039190612fb0565b61110d9080612fd0565b8080601f01602080910402602001604051908101604052809392919081815260200183838082843760009201919091525061114f9250505060a0890189612f51565b8681811061115f5761115f612f9a565b90506020028101906111719190612fb0565b61117f906020810190612fd0565b8080601f01602080910402602001604051908101604052809392919081815260200183838082843760009201919091525061218192505050565b806111c381612f36565b9150506110b8565b5060005b6111dc60c0850185612f51565b90508110156112a3576112916002836111f860c0880188612f51565b8581811061120857611208612f9a565b905060200281019061121a9190612fb0565b6112249080612fd0565b8080601f0160208091040260200160405190810160405280939291908181526020018383808284376000920191909152506112669250505060c0890189612f51565b8681811061127657611276612f9a565b90506020028101906112889190612fb0565b60200135611e11565b8061129b81612f36565b9150506111cf565b506112b16020840184613016565b156112ee57604080518082019091526006815265656e67696e6560d01b602082015260c9546112ee916003918491906001600160a01b0316611e11565b6112fe6040840160208501613016565b1561133f5761133f600382604051806040016040528060088152602001676d696e746564427960c01b8152506113313390565b6001600160a01b0316611e11565b61134f6060840160408501613016565b1561138a5761138a600382604051806040016040528060088152602001676d696e746564546f60c01b815250876001600160a01b0316611e11565b61139a6080840160608501613016565b156113cd576113cd60038260405180604001604052806009815260200168074696d657374616d760bc1b81525042611e11565b6113dd60a0840160808501613016565b15611412576114126003826040518060400160405280600b81526020016a313637b1b5a73ab6b132b960a91b81525043611e11565b9392505050565b6114238686611db3565b611498868686868080601f01602080910402602001604051908101604052809392919081815260200183838082843760009201919091525050604080516020601f8a01819004810282018101909252888152925088915087908190840183828082843760009201919091525061218192505050565b505050505050565b6114a984611f81565b82826040516114b9929190612df2565b60405180910390208460028111156114d3576114d3612c7f565b6040518381527f782a7f9c63c9263d810c131d5836bd134f5fa4a177de20ef7c4881afd5f38e33906020015b60405180910390a350505050565b6097546001600160a01b031633146115375760405162461bcd60e51b815260040161068f90612dbd565b6001600160a01b03811661159c5760405162461bcd60e51b815260206004820152602660248201527f4f776e61626c653a206e6577206f776e657220697320746865207a65726f206160448201526564647265737360d01b606482015260840161068f565b61105b81611a22565b60006001600160e01b031982166380ac58cd60e01b14806115d657506001600160e01b03198216635b5e139f60e01b145b8061053757506301ffc9a760e01b6001600160e01b0319831614610537565b600081815260696020526040902080546001600160a01b0319166001600160a01b038416908117909155819061162a826109d7565b6001600160a01b03167f8c5be1e5ebec7d5bd14f71427d1e84f3dd0314c0f7b2291e5b200ac8c7c3b92560405160405180910390a45050565b600181600381111561167757611677612c7f565b14156116b15760c9546001600160a01b0316335b6001600160a01b03161461105b5760405162461bcd60e51b815260040161068f90612ef5565b60405162461bcd60e51b81526020600482015260146024820152737368656c6c3a20696e76616c696420777269746560601b604482015260640161068f565b60008383604051602001611705929190613033565b60408051601f198184030181528282528051602091820120600081815260cc909252919020849055915061173a908490613060565b604051809103902084600381111561175457611754612c7f565b6040518481527fa053a9b9e0385b96b57cee5ab57a5f76edaeeaddeb52f90c2daa8e75652d6ca1906020016114ff565b6000818152606760205260408120546001600160a01b03166117fd5760405162461bcd60e51b815260206004820152602c60248201527f4552433732313a206f70657261746f7220717565727920666f72206e6f6e657860448201526b34b9ba32b73a103a37b5b2b760a11b606482015260840161068f565b6000611808836109d7565b9050806001600160a01b0316846001600160a01b031614806118435750836001600160a01b03166118388461061a565b6001600160a01b0316145b8061058057506001600160a01b038082166000908152606a602090815260408083209388168352929052205460ff16610580565b826001600160a01b031661188a826109d7565b6001600160a01b0316146118f25760405162461bcd60e51b815260206004820152602960248201527f4552433732313a207472616e73666572206f6620746f6b656e2074686174206960448201526839903737ba1037bbb760b91b606482015260840161068f565b6001600160a01b0382166119545760405162461bcd60e51b8152602060048201526024808201527f4552433732313a207472616e7366657220746f20746865207a65726f206164646044820152637265737360e01b606482015260840161068f565b61195f83838361222a565b61196a6000826115f5565b6001600160a01b0383166000908152606860205260408120805460019290611993908490613072565b90915550506001600160a01b03821660009081526068602052604081208054600192906119c1908490613089565b909155505060008181526067602052604080822080546001600160a01b0319166001600160a01b0386811691821790925591518493918716917fddf252ad1be2c89b69c2b068fc378daa952ba7f163c4a11628f55a4df523b3ef91a4505050565b609780546001600160a01b038381166001600160a01b0319831681179093556040519116919082907f8be0079c531659141344cd1fd0a4f28419497f9722a3daafe3b4186f6b6457e090600090a35050565b6000826002811115611a8857611a88612c7f565b1415611a92575050565b6001826002811115611aa657611aa6612c7f565b1415611b035733611ab6826109d7565b6001600160a01b031614610d4d5760405162461bcd60e51b815260206004820152601460248201527339b432b6361d103737ba1037333a1037bbb732b960611b604482015260640161068f565b6002826002811115611b1757611b17612c7f565b1415610d4d5760c9546001600160a01b0316335b6001600160a01b031614610d4d5760405162461bcd60e51b815260040161068f90612ef5565b600054610100900460ff1680611b6a575060005460ff16155b611b865760405162461bcd60e51b815260040161068f90612e31565b600054610100900460ff16158015611ba8576000805461ffff19166101011790555b611bb06122a0565b611bb86122a0565b611bc2838361230b565b80156107c5576000805461ff0019169055505050565b6040516301ffc9a760e01b8152630cfec18360e01b60048201526001600160a01b038216906301ffc9a79060240160206040518083038186803b158015611c1e57600080fd5b505afa158015611c32573d6000803e3d6000fd5b505050506040513d601f19601f82011682018060405250810190611c5691906130a1565b611c9a5760405162461bcd60e51b81526020600482015260156024820152747368656c6c3a20696e76616c696420656e67696e6560581b604482015260640161068f565b60c980546001600160a01b0319166001600160a01b0383169081179091556040517fc025000b3eb797f8e47b27090b863e99fe6ca49d1291e6999840d85c3a4aa6c790600090a250565b816001600160a01b0316836001600160a01b03161415611d465760405162461bcd60e51b815260206004820152601960248201527f4552433732313a20617070726f766520746f2063616c6c657200000000000000604482015260640161068f565b6001600160a01b038381166000818152606a6020908152604080832094871680845294825291829020805460ff191686151590811790915591519182527f17307eab39ab6107e8899845ad3d59bd9653f200f220920489ca2b5937696c31910160405180910390a3505050565b6000826003811115611dc757611dc7612c7f565b1415611de557611dd6816109d7565b6001600160a01b031633611ab6565b6001826003811115611df957611df9612c7f565b14156116b15760c9546001600160a01b031633611b2b565b6000848484604051602001611e28939291906130be565b60408051601f198184030181528282528051602091820120600081815260cc9092529190208490559150611e5d908490613060565b604051809103902084866003811115611e7857611e78612c7f565b6040518581527f1f7d6b0e2c7b9053e25fd5a11370286e2c393aa98a6deb98341b4a45a9703ed990602001610b6c565b611eb3848484611877565b611ebf848484846123a0565b6108155760405162461bcd60e51b815260040161068f906130f2565b60008383604051602001611ef0929190613033565b60408051601f198184030181529181528151602092830120600081815260cb8452919091208451919350611f29929091908501906124aa565b5082604051611f389190613060565b6040518091039020846003811115611f5257611f52612c7f565b7f2a8420f1058b2e9bb2976e5d844f65dc6037ba75f017549cc9532f962ac89e1d846040516114ff919061267c565b6000816002811115611f9557611f95612c7f565b1415611f9e5750565b6001816002811115611fb257611fb2612c7f565b1415612007576000611fc333610a4e565b1161105b5760405162461bcd60e51b81526020600482015260146024820152737368656c6c3a206e6f206f776e6564206e66747360601b604482015260640161068f565b600281600281111561201b5761201b612c7f565b141561105b5760c9546001600160a01b03163361168b565b6001600160a01b0382166120895760405162461bcd60e51b815260206004820181905260248201527f4552433732313a206d696e7420746f20746865207a65726f2061646472657373604482015260640161068f565b6000818152606760205260409020546001600160a01b0316156120ee5760405162461bcd60e51b815260206004820152601c60248201527f4552433732313a20746f6b656e20616c7265616479206d696e74656400000000604482015260640161068f565b6120fa6000838361222a565b6001600160a01b0382166000908152606860205260408120805460019290612123908490613089565b909155505060008181526067602052604080822080546001600160a01b0319166001600160a01b03861690811790915590518392907fddf252ad1be2c89b69c2b068fc378daa952ba7f163c4a11628f55a4df523b3ef908290a45050565b6000848484604051602001612198939291906130be565b60408051601f198184030181529181528151602092830120600081815260cb84529190912084519193506121d1929091908501906124aa565b50826040516121e09190613060565b6040518091039020848660038111156121fb576121fb612c7f565b7ffa0daffb33762695d4f24252774dfe2687db66512de5b07c240084cbddab692985604051610b6c919061267c565b60c9546040516301bdf3ad60e51b81523060048201526001600160a01b038581166024830152848116604483015260648201849052909116906337be75a090608401600060405180830381600087803b15801561228657600080fd5b505af1925050508015612297575060015b6107c557505050565b600054610100900460ff16806122b9575060005460ff16155b6122d55760405162461bcd60e51b815260040161068f90612e31565b600054610100900460ff161580156122f7576000805461ffff19166101011790555b801561105b576000805461ff001916905550565b600054610100900460ff1680612324575060005460ff16155b6123405760405162461bcd60e51b815260040161068f90612e31565b600054610100900460ff16158015612362576000805461ffff19166101011790555b82516123759060659060208601906124aa565b5081516123899060669060208501906124aa565b5080156107c5576000805461ff0019169055505050565b60006001600160a01b0384163b156124a257604051630a85bd0160e11b81526001600160a01b0385169063150b7a02906123e4903390899088908890600401613144565b602060405180830381600087803b1580156123fe57600080fd5b505af192505050801561242e575060408051601f3d908101601f1916820190925261242b91810190613181565b60015b612488573d80801561245c576040519150601f19603f3d011682016040523d82523d6000602084013e612461565b606091505b5080516124805760405162461bcd60e51b815260040161068f906130f2565b805181602001fd5b6001600160e01b031916630a85bd0160e11b149050610580565b506001610580565b8280546124b690612ce2565b90600052602060002090601f0160209004810192826124d8576000855561251e565b82601f106124f157805160ff191683800117855561251e565b8280016001018555821561251e579182015b8281111561251e578251825591602001919060010190612503565b5061252a92915061252e565b5090565b5b8082111561252a576000815560010161252f565b6001600160e01b03198116811461105b57600080fd5b60006020828403121561256b57600080fd5b813561141281612543565b80356004811061258557600080fd5b919050565b60008083601f84011261259c57600080fd5b5081356001600160401b038111156125b357600080fd5b6020830191508360208285010111156109b557600080fd5b600080600080606085870312156125e157600080fd5b6125ea85612576565b93506020850135925060408501356001600160401b0381111561260c57600080fd5b6126188782880161258a565b95989497509550505050565b60005b8381101561263f578181015183820152602001612627565b838111156108155750506000910152565b60008151808452612668816020860160208601612624565b601f01601f19169290920160200192915050565b6020815260006114126020830184612650565b6000602082840312156126a157600080fd5b5035919050565b6001600160a01b038116811461105b57600080fd5b600080604083850312156126d057600080fd5b82356126db816126a8565b946020939093013593505050565b600080600080606085870312156126ff57600080fd5b61270885612576565b935060208501356001600160401b0381111561272357600080fd5b61272f8782880161258a565b9598909750949560400135949350505050565b60008060006040848603121561275757600080fd5b61276084612576565b925060208401356001600160401b0381111561277b57600080fd5b6127878682870161258a565b9497909650939450505050565b6000806000606084860312156127a957600080fd5b83356127b4816126a8565b925060208401356127c4816126a8565b929592945050506040919091013590565b600080604083850312156127e857600080fd5b50508035926020909101359150565b60006020828403121561280957600080fd5b8135611412816126a8565b80356003811061258557600080fd5b60008060008060006080868803121561283b57600080fd5b61284486612814565b94506020860135935060408601356001600160401b0381111561286657600080fd5b6128728882890161258a565b96999598509660600135949350505050565b6000806000806000806080878903121561289d57600080fd5b6128a687612814565b95506020870135945060408701356001600160401b03808211156128c957600080fd5b6128d58a838b0161258a565b909650945060608901359150808211156128ee57600080fd5b506128fb89828a0161258a565b979a9699509497509295939492505050565b6000806000806000806080878903121561292657600080fd5b86356001600160401b038082111561293d57600080fd5b6129498a838b0161258a565b9098509650602089013591508082111561296257600080fd5b5061296f89828a0161258a565b9095509350506040870135612983816126a8565b91506060870135612993816126a8565b809150509295509295509295565b801515811461105b57600080fd5b600080604083850312156129c257600080fd5b82356129cd816126a8565b915060208301356129dd816129a1565b809150509250929050565b600080600080600060808688031215612a0057600080fd5b61284486612576565b634e487b7160e01b600052604160045260246000fd5b604051601f8201601f191681016001600160401b0381118282101715612a4757612a47612a09565b604052919050565b60006001600160401b03821115612a6857612a68612a09565b50601f01601f191660200190565b60008060008060808587031215612a8c57600080fd5b8435612a97816126a8565b93506020850135612aa7816126a8565b92506040850135915060608501356001600160401b03811115612ac957600080fd5b8501601f81018713612ada57600080fd5b8035612aed612ae882612a4f565b612a1f565b818152886020838501011115612b0257600080fd5b8160208401602083013760006020838301015280935050505092959194509250565b600080600080600060608688031215612b3c57600080fd5b612b4586612576565b945060208601356001600160401b0380821115612b6157600080fd5b612b6d89838a0161258a565b90965094506040880135915080821115612b8657600080fd5b50612b938882890161258a565b969995985093965092949392505050565b600080600080600060608688031215612bbc57600080fd5b612b4586612814565b60008060408385031215612bd857600080fd5b8235612be3816126a8565b915060208301356001600160401b03811115612bfe57600080fd5b830160e081860312156129dd57600080fd5b60008060008060008060808789031215612c2957600080fd5b6128a687612576565b60008060008060608587031215612c4857600080fd5b61270885612814565b60008060408385031215612c6457600080fd5b8235612c6f816126a8565b915060208301356129dd816126a8565b634e487b7160e01b600052602160045260246000fd5b60048110612cb357634e487b7160e01b600052602160045260246000fd5b60f81b9052565b612cc48186612c95565b83600182015281836021830137600091016021019081529392505050565b600181811c90821680612cf657607f821691505b60208210811415612d1757634e487b7160e01b600052602260045260246000fd5b50919050565b612d278185612c95565b818360018301376000910160010190815292915050565b60208082526031908201527f4552433732313a207472616e736665722063616c6c6572206973206e6f74206f6040820152701ddb995c881b9bdc88185c1c1c9bdd9959607a1b606082015260800190565b60008060408385031215612da257600080fd5b8251612dad816126a8565b6020939093015192949293505050565b6020808252818101527f4f776e61626c653a2063616c6c6572206973206e6f7420746865206f776e6572604082015260600190565b8183823760009101908152919050565b60208152816020820152818360408301376000818301604090810191909152601f909201601f19160101919050565b6020808252602e908201527f496e697469616c697a61626c653a20636f6e747261637420697320616c72656160408201526d191e481a5b9a5d1a585b1a5e995960921b606082015260800190565b600060208284031215612e9157600080fd5b81516001600160401b03811115612ea757600080fd5b8201601f81018413612eb857600080fd5b8051612ec6612ae882612a4f565b818152856020838501011115612edb57600080fd5b612eec826020830160208601612624565b95945050505050565b6020808252601190820152707368656c6c3a206e6f7420656e67696e6560781b604082015260600190565b634e487b7160e01b600052601160045260246000fd5b6000600019821415612f4a57612f4a612f20565b5060010190565b6000808335601e19843603018112612f6857600080fd5b8301803591506001600160401b03821115612f8257600080fd5b6020019150600581901b36038213156109b557600080fd5b634e487b7160e01b600052603260045260246000fd5b60008235603e19833603018112612fc657600080fd5b9190910192915050565b6000808335601e19843603018112612fe757600080fd5b8301803591506001600160401b0382111561300157600080fd5b6020019150368190038213156109b557600080fd5b60006020828403121561302857600080fd5b8135611412816129a1565b61303d8184612c95565b60008251613052816001850160208701612624565b919091016001019392505050565b60008251612fc6818460208701612624565b60008282101561308457613084612f20565b500390565b6000821982111561309c5761309c612f20565b500190565b6000602082840312156130b357600080fd5b8151611412816129a1565b6130c88185612c95565b826001820152600082516130e3816021850160208701612624565b91909101602101949350505050565b60208082526032908201527f4552433732313a207472616e7366657220746f206e6f6e20455243373231526560408201527131b2b4bb32b91034b6b83632b6b2b73a32b960711b606082015260800190565b6001600160a01b038581168252841660208201526040810183905260806060820181905260009061317790830184612650565b9695505050505050565b60006020828403121561319357600080fd5b81516114128161254356fea2646970667358221220df84798ba7f4405aa7c153409c89fd0c97efd99f3e5675643d26e9eb4acf69b464736f6c63430008090033",
  "linkReferences": {},
  "deployedLinkReferences": {}
}