{
  "_format": "hh-sol-artifact-1",
  "contractName": "CollectionFactory",
  "sourceName": "contracts/CollectionFactory.sol",
  "abi": [
    {
      "inputs": [],
      "stateMutability": "nonpayable",
      "type": "constructor"
    },
    {
      "anonymous": false,
      "inputs": [
        {
          "indexed": true,
          "internalType": "contract Collection",
          "name": "collection",
          "type": "address"
        },
        {
          "indexed": false,
          "internalType": "string",
          "name": "name",
          "type": "string"
        },
        {
          "indexed": false,
          "internalType": "string",
          "name": "symbol",
          "type": "string"
        },
        {
          "indexed": false,
          "internalType": "contract IEngine",
          "name": "engine",
          "type": "address"
        },
        {
          "indexed": false,
          "internalType": "address",
          "name": "owner",
          "type": "address"
        }
      ],
      "name": "CollectionCreated",
      "type": "event"
    },
    {
      "inputs": [
        {
          "internalType": "string",
          "name": "name",
          "type": "string"
        },
        {
          "internalType": "string",
          "name": "symbol",
          "type": "string"
        },
        {
          "internalType": "contract IEngine",
          "name": "engine",
          "type": "address"
        },
        {
          "internalType": "address",
          "name": "owner",
          "type": "address"
        }
      ],
      "name": "createCollection",
      "outputs": [
        {
          "internalType": "contract Collection",
          "name": "",
          "type": "address"
        }
      ],
      "stateMutability": "nonpayable",
      "type": "function"
    },
    {
      "inputs": [],
      "name": "implementation",
      "outputs": [
        {
          "internalType": "contract Collection",
          "name": "",
          "type": "address"
        }
      ],
      "stateMutability": "view",
      "type": "function"
    }
  ],
  "bytecode": "0x60a060405234801561001057600080fd5b5060405161001d9061004b565b604051809103906000f080158015610039573d6000803e3d6000fd5b506001600160a01b0316608052610058565b6133398061043583390190565b6080516103bd6100786000396000818160400152609401526103bd6000f3fe608060405234801561001057600080fd5b50600436106100365760003560e01c80635c60da1b1461003b578063bdca8aa31461007e575b600080fd5b6100627f000000000000000000000000000000000000000000000000000000000000000081565b6040516001600160a01b03909116815260200160405180910390f35b61006261008c36600461027b565b6000806100b87f0000000000000000000000000000000000000000000000000000000000000000610179565b6040516323c56d0560e21b81529091506001600160a01b03821690638f15b414906100f1908b908b908b908b908b908b90600401610339565b600060405180830381600087803b15801561010b57600080fd5b505af115801561011f573d6000803e3d6000fd5b50505050806001600160a01b03167f97be82f4a0bf91627b5898af4247eff9a92776d30e939b75c10db9f761ea75cb89898989898960405161016696959493929190610339565b60405180910390a2979650505050505050565b6000604051733d602d80600a3d3981f3363d3d373d3d3d363d7360601b81528260601b60148201526e5af43d82803e903d91602b57fd5bf360881b60288201526037816000f09150506001600160a01b0381166102155760405162461bcd60e51b8152602060048201526016602482015275115490cc4c4d8dce8818dc99585d194819985a5b195960521b604482015260640160405180910390fd5b919050565b60008083601f84011261022c57600080fd5b50813567ffffffffffffffff81111561024457600080fd5b60208301915083602082850101111561025c57600080fd5b9250929050565b6001600160a01b038116811461027857600080fd5b50565b6000806000806000806080878903121561029457600080fd5b863567ffffffffffffffff808211156102ac57600080fd5b6102b88a838b0161021a565b909850965060208901359150808211156102d157600080fd5b506102de89828a0161021a565b90955093505060408701356102f281610263565b9150606087013561030281610263565b809150509295509295509295565b81835281816020850137506000828201602090810191909152601f909101601f19169091010190565b60808152600061034d60808301888a610310565b8281036020840152610360818789610310565b6001600160a01b03958616604085015293909416606090920191909152509594505050505056fea2646970667358221220987d9307e1cdc376a7cf646dc7de35d31e0c27f5006b93ae5617d42b80120f9e64736f6c63430008090033608060405234801561001057600080fd5b50613319806100206000396000f3fe608060405234801561001057600080fd5b506004361061021c5760003560e01c8063847b284711610125578063c0f53f3d116100ad578063ca0b68af1161007c578063ca0b68af146104ac578063cc89f962146104bf578063ddb114c1146104d2578063e985e9c5146104e5578063f2fde38b1461052157600080fd5b8063c0f53f3d14610460578063c4445ead14610473578063c87b56dd14610486578063c9a7a7c41461049957600080fd5b806395d89b41116100f457806395d89b411461040c578063a22cb46514610414578063a66103aa14610427578063b88d4fde1461043a578063b8c338891461044d57600080fd5b8063847b2847146103c2578063869e039e146103d55780638da5cb5b146103e85780638f15b414146103f957600080fd5b80634102a30c116101a85780636352211e116101775780636352211e1461037857806370a082311461038b578063715018a61461039e57806375794a3c146103a6578063819384ac146103af57600080fd5b80634102a30c1461032a57806342842e0e1461033d57806342966c68146103505780634d6249d11461036357600080fd5b8063095ea7b3116101ef578063095ea7b3146102aa5780630a0c3e5e146102bf5780631e3c7b88146102d257806323b872dd146102e55780632a55205a146102f857600080fd5b806301ffc9a714610221578063036217ab1461024957806306fdde031461026a578063081812fc1461027f575b600080fd5b61023461022f36600461269e565b610534565b60405190151581526020015b60405180910390f35b61025c610257366004612710565b61057b565b604051908152602001610240565b6102726105c6565b60405161024091906127c1565b61029261028d3660046127d4565b610658565b6040516001600160a01b039091168152602001610240565b6102bd6102b8366004612802565b6106f2565b005b6102bd6102cd36600461282e565b610808565b6102726102e0366004612887565b610859565b6102bd6102f33660046128d9565b610930565b61030b61030636600461291a565b610961565b604080516001600160a01b039093168352602083019190915201610240565b60c954610292906001600160a01b031681565b6102bd61034b3660046128d9565b6109fa565b6102bd61035e3660046127d4565b610a15565b604051630cfec18360e01b8152602001610240565b6102926103863660046127d4565b610a78565b61025c61039936600461293c565b610aef565b6102bd610b76565b61025c60ca5481565b6102bd6103bd366004612968565b610bac565b61025c6103d0366004612887565b610c1c565b6102bd6103e33660046129c9565b610c62565b6097546001600160a01b0316610292565b6102bd610407366004612a52565b610cd8565b610272610dd4565b6102bd610422366004612af4565b610de3565b6102bd610435366004612b2d565b610df2565b6102bd610448366004612bbb565b610e46565b6102bd61045b366004612c69565b610e78565b61027261046e366004612710565b610ef5565b6102bd610481366004612ce9565b610fcf565b6102726104943660046127d4565b611042565b6102bd6104a736600461293c565b6110c9565b61025c6104ba366004612d0a565b6110fc565b6102bd6104cd366004612d55565b6114b7565b6102bd6104e0366004612d77565b61153e565b6102346104f3366004612d96565b6001600160a01b039182166000908152606a6020908152604080832093909416825291909152205460ff1690565b6102bd61052f36600461293c565b6115ab565b600061053f82611643565b8061055a57506001600160e01b0319821663152a902d60e11b145b8061057557506001600160e01b031982166301ffc9a760e01b145b92915050565b600080858585856040516020016105959493929190612dff565b60408051601f198184030181529181528151602092830120600090815260cc9092529020549150505b949350505050565b6060606580546105d590612e27565b80601f016020809104026020016040519081016040528092919081815260200182805461060190612e27565b801561064e5780601f106106235761010080835404028352916020019161064e565b820191906000526020600020905b81548152906001019060200180831161063157829003601f168201915b5050505050905090565b6000818152606760205260408120546001600160a01b03166106d65760405162461bcd60e51b815260206004820152602c60248201527f4552433732313a20617070726f76656420717565727920666f72206e6f6e657860448201526b34b9ba32b73a103a37b5b2b760a11b60648201526084015b60405180910390fd5b506000908152606960205260409020546001600160a01b031690565b60006106fd82610a78565b9050806001600160a01b0316836001600160a01b0316141561076b5760405162461bcd60e51b815260206004820152602160248201527f4552433732313a20617070726f76616c20746f2063757272656e74206f776e656044820152603960f91b60648201526084016106cd565b336001600160a01b0382161480610787575061078781336104f3565b6107f95760405162461bcd60e51b815260206004820152603860248201527f4552433732313a20617070726f76652063616c6c6572206973206e6f74206f7760448201527f6e6572206e6f7220617070726f76656420666f7220616c6c000000000000000060648201526084016106cd565b6108038383611693565b505050565b61081184611701565b6108538484848080601f01602080910402602001604051908101604052809392919081815260200183838082843760009201919091525086925061178e915050565b50505050565b6060600084848460405160200161087293929190612e62565b60405160208183030381529060405280519060200120905060cb600082815260200190815260200160002080546108a890612e27565b80601f01602080910402602001604051908101604052809291908181526020018280546108d490612e27565b80156109215780601f106108f657610100808354040283529160200191610921565b820191906000526020600020905b81548152906001019060200180831161090457829003601f168201915b50505050509150509392505050565b61093a3382611822565b6109565760405162461bcd60e51b81526004016106cd90612e83565b610803838383611915565b60c954604051631b6f4ba160e11b8152306004820152602481018490526044810183905260009182916001600160a01b03909116906336de974290606401604080518083038186803b1580156109b657600080fd5b505afa1580156109ca573d6000803e3d6000fd5b505050506040513d601f19601f820116820180604052508101906109ee9190612ed4565b915091505b9250929050565b61080383838360405180602001604052806000815250610e46565b33610a1f82610a78565b6001600160a01b031614610a6c5760405162461bcd60e51b815260206004820152601460248201527339b432b6361d103737ba1037333a1037bbb732b960611b60448201526064016106cd565b610a7581611ac0565b50565b6000818152606760205260408120546001600160a01b0316806105755760405162461bcd60e51b815260206004820152602960248201527f4552433732313a206f776e657220717565727920666f72206e6f6e657869737460448201526832b73a103a37b5b2b760b91b60648201526084016106cd565b60006001600160a01b038216610b5a5760405162461bcd60e51b815260206004820152602a60248201527f4552433732313a2062616c616e636520717565727920666f7220746865207a65604482015269726f206164647265737360b01b60648201526084016106cd565b506001600160a01b031660009081526068602052604090205490565b6097546001600160a01b03163314610ba05760405162461bcd60e51b81526004016106cd90612f02565b610baa6000611b67565b565b610bb68585611bb9565b8282604051610bc6929190612f37565b604051809103902084866002811115610be157610be1612dc4565b6040518481527f5de69e04f7842459f5c80e3fd1b2b69a2c3d392e367e3dd637c5050dc333d418906020015b60405180910390a45050505050565b600080848484604051602001610c3493929190612e62565b60408051808303601f190181529181528151602092830120600090815260cc90925290205495945050505050565b610c6c8686611bb9565b8383604051610c7c929190612f37565b604051809103902085876002811115610c9757610c97612dc4565b7fcfcd0c7e57905ea40d63c78143aa14a85dd9d4717d548ca379cc641359945a458585604051610cc8929190612f47565b60405180910390a4505050505050565b600054610100900460ff1680610cf1575060005460ff16155b610d0d5760405162461bcd60e51b81526004016106cd90612f76565b600054610100900460ff16158015610d2f576000805461ffff19166101011790555b610da287878080601f01602080910402602001604051908101604052809392919081815260200183838082843760009201919091525050604080516020601f8b018190048102820181019092528981529250899150889081908401838280828437600092019190915250611c9692505050565b610dab82611b67565b610db483611d1d565b600160ca558015610dcb576000805461ff00191690555b50505050505050565b6060606680546105d590612e27565b610dee338383611e29565b5050565b610dfc8585611ef8565b610e3f858585858080601f016020809104026020016040519081016040528093929190818152602001838380828437600092019190915250879250611f56915050565b5050505050565b610e503383611822565b610e6c5760405162461bcd60e51b81526004016106cd90612e83565b61085384848484611fed565b610e8185611701565b610e3f8585858080601f01602080910402602001604051908101604052809392919081815260200183838082843760009201919091525050604080516020601f8901819004810282018101909252878152925087915086908190840183828082843760009201919091525061202092505050565b6060600085858585604051602001610f109493929190612dff565b60405160208183030381529060405280519060200120905060cb60008281526020019081526020016000208054610f4690612e27565b80601f0160208091040260200160405190810160405280929190818152602001828054610f7290612e27565b8015610fbf5780601f10610f9457610100808354040283529160200191610fbf565b820191906000526020600020905b815481529060010190602001808311610fa257829003601f168201915b5050505050915050949350505050565b610fd8856120c6565b8383604051610fe8929190612f37565b604051809103902085600281111561100257611002612dc4565b7f261657457e4ca4cf70c5aa313e67650735e0d0937d1c4a24908a8d691cda53628484604051611033929190612f47565b60405180910390a35050505050565b60c9546040516305b1feb160e11b8152306004820152602481018390526060916001600160a01b031690630b63fd629060440160006040518083038186803b15801561108d57600080fd5b505afa1580156110a1573d6000803e3d6000fd5b505050506040513d6000823e601f3d908101601f191682016040526105759190810190612fc4565b6097546001600160a01b031633146110f35760405162461bcd60e51b81526004016106cd90612f02565b610a7581611d1d565b60c9546000906001600160a01b0316336001600160a01b0316146111325760405162461bcd60e51b81526004016106cd9061303a565b60ca8054600091826111438361307b565b9190505590506111538482612178565b60005b61116360a0850185613096565b90508110156112695761125760028361117f60a0880188613096565b8581811061118f5761118f6130df565b90506020028101906111a191906130f5565b6111ab9080613115565b8080601f0160208091040260200160405190810160405280939291908181526020018383808284376000920191909152506111ed9250505060a0890189613096565b868181106111fd576111fd6130df565b905060200281019061120f91906130f5565b61121d906020810190613115565b8080601f0160208091040260200160405190810160405280939291908181526020018383808284376000920191909152506122c692505050565b806112618161307b565b915050611156565b5060005b61127a60c0850185613096565b90508110156113415761132f60028361129660c0880188613096565b858181106112a6576112a66130df565b90506020028101906112b891906130f5565b6112c29080613115565b8080601f0160208091040260200160405190810160405280939291908181526020018383808284376000920191909152506113049250505060c0890189613096565b86818110611314576113146130df565b905060200281019061132691906130f5565b60200135611f56565b806113398161307b565b91505061126d565b5061134f602084018461315b565b1561138c57604080518082019091526006815265656e67696e6560d01b602082015260c95461138c916003918491906001600160a01b0316611f56565b61139c604084016020850161315b565b156113dd576113dd600382604051806040016040528060088152602001676d696e746564427960c01b8152506113cf3390565b6001600160a01b0316611f56565b6113ed606084016040850161315b565b1561142857611428600382604051806040016040528060088152602001676d696e746564546f60c01b815250876001600160a01b0316611f56565b611438608084016060850161315b565b1561146b5761146b60038260405180604001604052806009815260200168074696d657374616d760bc1b81525042611f56565b61147b60a084016080850161315b565b156114b0576114b06003826040518060400160405280600b81526020016a313637b1b5a73ab6b132b960a91b81525043611f56565b9392505050565b6114c18686611ef8565b611536868686868080601f01602080910402602001604051908101604052809392919081815260200183838082843760009201919091525050604080516020601f8a0181900481028201810190925288815292508891508790819084018382808284376000920191909152506122c692505050565b505050505050565b611547846120c6565b8282604051611557929190612f37565b604051809103902084600281111561157157611571612dc4565b6040518381527f782a7f9c63c9263d810c131d5836bd134f5fa4a177de20ef7c4881afd5f38e33906020015b60405180910390a350505050565b6097546001600160a01b031633146115d55760405162461bcd60e51b81526004016106cd90612f02565b6001600160a01b03811661163a5760405162461bcd60e51b815260206004820152602660248201527f4f776e61626c653a206e6577206f776e657220697320746865207a65726f206160448201526564647265737360d01b60648201526084016106cd565b610a7581611b67565b60006001600160e01b031982166380ac58cd60e01b148061167457506001600160e01b03198216635b5e139f60e01b145b8061057557506301ffc9a760e01b6001600160e01b0319831614610575565b600081815260696020526040902080546001600160a01b0319166001600160a01b03841690811790915581906116c882610a78565b6001600160a01b03167f8c5be1e5ebec7d5bd14f71427d1e84f3dd0314c0f7b2291e5b200ac8c7c3b92560405160405180910390a45050565b600181600381111561171557611715612dc4565b141561174f5760c9546001600160a01b0316335b6001600160a01b031614610a755760405162461bcd60e51b81526004016106cd9061303a565b60405162461bcd60e51b81526020600482015260146024820152737368656c6c3a20696e76616c696420777269746560601b60448201526064016106cd565b600083836040516020016117a3929190613178565b60408051601f198184030181528282528051602091820120600081815260cc90925291902084905591506117d89084906131a5565b60405180910390208460038111156117f2576117f2612dc4565b6040518481527fa053a9b9e0385b96b57cee5ab57a5f76edaeeaddeb52f90c2daa8e75652d6ca19060200161159d565b6000818152606760205260408120546001600160a01b031661189b5760405162461bcd60e51b815260206004820152602c60248201527f4552433732313a206f70657261746f7220717565727920666f72206e6f6e657860448201526b34b9ba32b73a103a37b5b2b760a11b60648201526084016106cd565b60006118a683610a78565b9050806001600160a01b0316846001600160a01b031614806118e15750836001600160a01b03166118d684610658565b6001600160a01b0316145b806105be57506001600160a01b038082166000908152606a602090815260408083209388168352929052205460ff166105be565b826001600160a01b031661192882610a78565b6001600160a01b0316146119905760405162461bcd60e51b815260206004820152602960248201527f4552433732313a207472616e73666572206f6620746f6b656e2074686174206960448201526839903737ba1037bbb760b91b60648201526084016106cd565b6001600160a01b0382166119f25760405162461bcd60e51b8152602060048201526024808201527f4552433732313a207472616e7366657220746f20746865207a65726f206164646044820152637265737360e01b60648201526084016106cd565b6119fd83838361236f565b611a08600082611693565b6001600160a01b0383166000908152606860205260408120805460019290611a319084906131b7565b90915550506001600160a01b0382166000908152606860205260408120805460019290611a5f9084906131ce565b909155505060008181526067602052604080822080546001600160a01b0319166001600160a01b0386811691821790925591518493918716917fddf252ad1be2c89b69c2b068fc378daa952ba7f163c4a11628f55a4df523b3ef91a4505050565b6000611acb82610a78565b9050611ad98160008461236f565b611ae4600083611693565b6001600160a01b0381166000908152606860205260408120805460019290611b0d9084906131b7565b909155505060008281526067602052604080822080546001600160a01b0319169055518391906001600160a01b038416907fddf252ad1be2c89b69c2b068fc378daa952ba7f163c4a11628f55a4df523b3ef908390a45050565b609780546001600160a01b038381166001600160a01b0319831681179093556040519116919082907f8be0079c531659141344cd1fd0a4f28419497f9722a3daafe3b4186f6b6457e090600090a35050565b6000826002811115611bcd57611bcd612dc4565b1415611bd7575050565b6001826002811115611beb57611beb612dc4565b1415611c485733611bfb82610a78565b6001600160a01b031614610dee5760405162461bcd60e51b815260206004820152601460248201527339b432b6361d103737ba1037333a1037bbb732b960611b60448201526064016106cd565b6002826002811115611c5c57611c5c612dc4565b1415610dee5760c9546001600160a01b0316335b6001600160a01b031614610dee5760405162461bcd60e51b81526004016106cd9061303a565b600054610100900460ff1680611caf575060005460ff16155b611ccb5760405162461bcd60e51b81526004016106cd90612f76565b600054610100900460ff16158015611ced576000805461ffff19166101011790555b611cf56123e5565b611cfd6123e5565b611d078383612450565b8015610803576000805461ff0019169055505050565b6040516301ffc9a760e01b8152630cfec18360e01b60048201526001600160a01b038216906301ffc9a79060240160206040518083038186803b158015611d6357600080fd5b505afa158015611d77573d6000803e3d6000fd5b505050506040513d601f19601f82011682018060405250810190611d9b91906131e6565b611ddf5760405162461bcd60e51b81526020600482015260156024820152747368656c6c3a20696e76616c696420656e67696e6560581b60448201526064016106cd565b60c980546001600160a01b0319166001600160a01b0383169081179091556040517fc025000b3eb797f8e47b27090b863e99fe6ca49d1291e6999840d85c3a4aa6c790600090a250565b816001600160a01b0316836001600160a01b03161415611e8b5760405162461bcd60e51b815260206004820152601960248201527f4552433732313a20617070726f766520746f2063616c6c65720000000000000060448201526064016106cd565b6001600160a01b038381166000818152606a6020908152604080832094871680845294825291829020805460ff191686151590811790915591519182527f17307eab39ab6107e8899845ad3d59bd9653f200f220920489ca2b5937696c31910160405180910390a3505050565b6000826003811115611f0c57611f0c612dc4565b1415611f2a57611f1b81610a78565b6001600160a01b031633611bfb565b6001826003811115611f3e57611f3e612dc4565b141561174f5760c9546001600160a01b031633611c70565b6000848484604051602001611f6d93929190613203565b60408051601f198184030181528282528051602091820120600081815260cc9092529190208490559150611fa29084906131a5565b604051809103902084866003811115611fbd57611fbd612dc4565b6040518581527f1f7d6b0e2c7b9053e25fd5a11370286e2c393aa98a6deb98341b4a45a9703ed990602001610c0d565b611ff8848484611915565b612004848484846124e5565b6108535760405162461bcd60e51b81526004016106cd90613237565b60008383604051602001612035929190613178565b60408051601f198184030181529181528151602092830120600081815260cb845291909120845191935061206e929091908501906125ef565b508260405161207d91906131a5565b604051809103902084600381111561209757612097612dc4565b7f2a8420f1058b2e9bb2976e5d844f65dc6037ba75f017549cc9532f962ac89e1d8460405161159d91906127c1565b60008160028111156120da576120da612dc4565b14156120e35750565b60018160028111156120f7576120f7612dc4565b141561214c57600061210833610aef565b11610a755760405162461bcd60e51b81526020600482015260146024820152737368656c6c3a206e6f206f776e6564206e66747360601b60448201526064016106cd565b600281600281111561216057612160612dc4565b1415610a755760c9546001600160a01b031633611729565b6001600160a01b0382166121ce5760405162461bcd60e51b815260206004820181905260248201527f4552433732313a206d696e7420746f20746865207a65726f206164647265737360448201526064016106cd565b6000818152606760205260409020546001600160a01b0316156122335760405162461bcd60e51b815260206004820152601c60248201527f4552433732313a20746f6b656e20616c7265616479206d696e7465640000000060448201526064016106cd565b61223f6000838361236f565b6001600160a01b03821660009081526068602052604081208054600192906122689084906131ce565b909155505060008181526067602052604080822080546001600160a01b0319166001600160a01b03861690811790915590518392907fddf252ad1be2c89b69c2b068fc378daa952ba7f163c4a11628f55a4df523b3ef908290a45050565b60008484846040516020016122dd93929190613203565b60408051601f198184030181529181528151602092830120600081815260cb8452919091208451919350612316929091908501906125ef565b508260405161232591906131a5565b60405180910390208486600381111561234057612340612dc4565b7ffa0daffb33762695d4f24252774dfe2687db66512de5b07c240084cbddab692985604051610c0d91906127c1565b60c9546040516301bdf3ad60e51b81523060048201526001600160a01b038581166024830152848116604483015260648201849052909116906337be75a090608401600060405180830381600087803b1580156123cb57600080fd5b505af19250505080156123dc575060015b61080357505050565b600054610100900460ff16806123fe575060005460ff16155b61241a5760405162461bcd60e51b81526004016106cd90612f76565b600054610100900460ff1615801561243c576000805461ffff19166101011790555b8015610a75576000805461ff001916905550565b600054610100900460ff1680612469575060005460ff16155b6124855760405162461bcd60e51b81526004016106cd90612f76565b600054610100900460ff161580156124a7576000805461ffff19166101011790555b82516124ba9060659060208601906125ef565b5081516124ce9060669060208501906125ef565b508015610803576000805461ff0019169055505050565b60006001600160a01b0384163b156125e757604051630a85bd0160e11b81526001600160a01b0385169063150b7a0290612529903390899088908890600401613289565b602060405180830381600087803b15801561254357600080fd5b505af1925050508015612573575060408051601f3d908101601f19168201909252612570918101906132c6565b60015b6125cd573d8080156125a1576040519150601f19603f3d011682016040523d82523d6000602084013e6125a6565b606091505b5080516125c55760405162461bcd60e51b81526004016106cd90613237565b805181602001fd5b6001600160e01b031916630a85bd0160e11b1490506105be565b5060016105be565b8280546125fb90612e27565b90600052602060002090601f01602090048101928261261d5760008555612663565b82601f1061263657805160ff1916838001178555612663565b82800160010185558215612663579182015b82811115612663578251825591602001919060010190612648565b5061266f929150612673565b5090565b5b8082111561266f5760008155600101612674565b6001600160e01b031981168114610a7557600080fd5b6000602082840312156126b057600080fd5b81356114b081612688565b8035600481106126ca57600080fd5b919050565b60008083601f8401126126e157600080fd5b5081356001600160401b038111156126f857600080fd5b6020830191508360208285010111156109f357600080fd5b6000806000806060858703121561272657600080fd5b61272f856126bb565b93506020850135925060408501356001600160401b0381111561275157600080fd5b61275d878288016126cf565b95989497509550505050565b60005b8381101561278457818101518382015260200161276c565b838111156108535750506000910152565b600081518084526127ad816020860160208601612769565b601f01601f19169290920160200192915050565b6020815260006114b06020830184612795565b6000602082840312156127e657600080fd5b5035919050565b6001600160a01b0381168114610a7557600080fd5b6000806040838503121561281557600080fd5b8235612820816127ed565b946020939093013593505050565b6000806000806060858703121561284457600080fd5b61284d856126bb565b935060208501356001600160401b0381111561286857600080fd5b612874878288016126cf565b9598909750949560400135949350505050565b60008060006040848603121561289c57600080fd5b6128a5846126bb565b925060208401356001600160401b038111156128c057600080fd5b6128cc868287016126cf565b9497909650939450505050565b6000806000606084860312156128ee57600080fd5b83356128f9816127ed565b92506020840135612909816127ed565b929592945050506040919091013590565b6000806040838503121561292d57600080fd5b50508035926020909101359150565b60006020828403121561294e57600080fd5b81356114b0816127ed565b8035600381106126ca57600080fd5b60008060008060006080868803121561298057600080fd5b61298986612959565b94506020860135935060408601356001600160401b038111156129ab57600080fd5b6129b7888289016126cf565b96999598509660600135949350505050565b600080600080600080608087890312156129e257600080fd5b6129eb87612959565b95506020870135945060408701356001600160401b0380821115612a0e57600080fd5b612a1a8a838b016126cf565b90965094506060890135915080821115612a3357600080fd5b50612a4089828a016126cf565b979a9699509497509295939492505050565b60008060008060008060808789031215612a6b57600080fd5b86356001600160401b0380821115612a8257600080fd5b612a8e8a838b016126cf565b90985096506020890135915080821115612aa757600080fd5b50612ab489828a016126cf565b9095509350506040870135612ac8816127ed565b91506060870135612ad8816127ed565b809150509295509295509295565b8015158114610a7557600080fd5b60008060408385031215612b0757600080fd5b8235612b12816127ed565b91506020830135612b2281612ae6565b809150509250929050565b600080600080600060808688031215612b4557600080fd5b612989866126bb565b634e487b7160e01b600052604160045260246000fd5b604051601f8201601f191681016001600160401b0381118282101715612b8c57612b8c612b4e565b604052919050565b60006001600160401b03821115612bad57612bad612b4e565b50601f01601f191660200190565b60008060008060808587031215612bd157600080fd5b8435612bdc816127ed565b93506020850135612bec816127ed565b92506040850135915060608501356001600160401b03811115612c0e57600080fd5b8501601f81018713612c1f57600080fd5b8035612c32612c2d82612b94565b612b64565b818152886020838501011115612c4757600080fd5b8160208401602083013760006020838301015280935050505092959194509250565b600080600080600060608688031215612c8157600080fd5b612c8a866126bb565b945060208601356001600160401b0380821115612ca657600080fd5b612cb289838a016126cf565b90965094506040880135915080821115612ccb57600080fd5b50612cd8888289016126cf565b969995985093965092949392505050565b600080600080600060608688031215612d0157600080fd5b612c8a86612959565b60008060408385031215612d1d57600080fd5b8235612d28816127ed565b915060208301356001600160401b03811115612d4357600080fd5b830160e08186031215612b2257600080fd5b60008060008060008060808789031215612d6e57600080fd5b6129eb876126bb565b60008060008060608587031215612d8d57600080fd5b61284d85612959565b60008060408385031215612da957600080fd5b8235612db4816127ed565b91506020830135612b22816127ed565b634e487b7160e01b600052602160045260246000fd5b60048110612df857634e487b7160e01b600052602160045260246000fd5b60f81b9052565b612e098186612dda565b83600182015281836021830137600091016021019081529392505050565b600181811c90821680612e3b57607f821691505b60208210811415612e5c57634e487b7160e01b600052602260045260246000fd5b50919050565b612e6c8185612dda565b818360018301376000910160010190815292915050565b60208082526031908201527f4552433732313a207472616e736665722063616c6c6572206973206e6f74206f6040820152701ddb995c881b9bdc88185c1c1c9bdd9959607a1b606082015260800190565b60008060408385031215612ee757600080fd5b8251612ef2816127ed565b6020939093015192949293505050565b6020808252818101527f4f776e61626c653a2063616c6c6572206973206e6f7420746865206f776e6572604082015260600190565b8183823760009101908152919050565b60208152816020820152818360408301376000818301604090810191909152601f909201601f19160101919050565b6020808252602e908201527f496e697469616c697a61626c653a20636f6e747261637420697320616c72656160408201526d191e481a5b9a5d1a585b1a5e995960921b606082015260800190565b600060208284031215612fd657600080fd5b81516001600160401b03811115612fec57600080fd5b8201601f81018413612ffd57600080fd5b805161300b612c2d82612b94565b81815285602083850101111561302057600080fd5b613031826020830160208601612769565b95945050505050565b6020808252601190820152707368656c6c3a206e6f7420656e67696e6560781b604082015260600190565b634e487b7160e01b600052601160045260246000fd5b600060001982141561308f5761308f613065565b5060010190565b6000808335601e198436030181126130ad57600080fd5b8301803591506001600160401b038211156130c757600080fd5b6020019150600581901b36038213156109f357600080fd5b634e487b7160e01b600052603260045260246000fd5b60008235603e1983360301811261310b57600080fd5b9190910192915050565b6000808335601e1984360301811261312c57600080fd5b8301803591506001600160401b0382111561314657600080fd5b6020019150368190038213156109f357600080fd5b60006020828403121561316d57600080fd5b81356114b081612ae6565b6131828184612dda565b60008251613197816001850160208701612769565b919091016001019392505050565b6000825161310b818460208701612769565b6000828210156131c9576131c9613065565b500390565b600082198211156131e1576131e1613065565b500190565b6000602082840312156131f857600080fd5b81516114b081612ae6565b61320d8185612dda565b82600182015260008251613228816021850160208701612769565b91909101602101949350505050565b60208082526032908201527f4552433732313a207472616e7366657220746f206e6f6e20455243373231526560408201527131b2b4bb32b91034b6b83632b6b2b73a32b960711b606082015260800190565b6001600160a01b03858116825284166020820152604081018390526080606082018190526000906132bc90830184612795565b9695505050505050565b6000602082840312156132d857600080fd5b81516114b08161268856fea26469706673582212202ff0683effce7588b1a8f7272ec15bd927999a1bd166c4e476676d274c39a60864736f6c63430008090033",
  "linkReferences": {},
  "deployedLinkReferences": {}
}